:100000000C94AF050C94CC050C94CC050C94CC0549
:100010000C94CC050C94CC050C94CC050C94CC051C
:100020000C94CC050C94CC050C94EB270C94BF28B5
:100030000C9461220C94CC050C94CC050C94CC054A
:100040000C94CC050C94CC050C94CC050C94CC05EC
:100050000C94CC050C94E8220C94CC050C94CC05A3
:100060000C94CC050C94CC050C94CC050C94CC05CC
:100070000C94CC050C94CC050C94CC050C94CC05BC
:100080000C94CC050C94CC050C94CC050C94CC05AC
:100090000C94CC050C94CC050C94CC050C94CC059C
:1000A0000C94CC050C94CC050C94CC0529001E00B6
:1000B0001F00200021002200000023002400250052
:1000C000260027002D002B0014001A000800150040
:1000D000170000001C0018000C0012001300310073
:1000E000390004001600070009000A0000000B0098
:1000F0000D000E000F0033003400E1001D001B0056
:100100000600190005004C001100100036003700F1
:100110003800E500E000E200E3006500C1522A007B
:1001200028002C00C2525200500051004F003500F0
:10013000000000000000000000000000A900000016
:10014000540055005600000001000000000052005D
:10015000000000000000AA005F006000610057007E
:10016000000001007700500051004F007E000000A9
:10017000A8005C005D005E008500000001007A00C0
:100180007B007C007D0000002900000059005A001F
:100190005B00670000000100010001000100000099
:1001A000010001000100620062006300580000527B
:1001B000000000000000000000000000000000003F
:1001C000000000000000000000000000000000002F
:1001D0000000000000000000000042004300440056
:1001E00045000000000000000000000000000000CA
:1001F000000000003E003F00400041000000000001
:1002000000000000000000000000000000003A00B4
:100210003B003C003D000000007C000000000000AE
:1002200000000000000000000000000000000000CE
:10023000005244454255473A2064697361626C65D7
:10024000642E0A0044454255473A20656E61626C4F
:1002500065642E0A000A0025303258006C65645F20
:100260007461736B3A20004F6E6573686F743A2047
:100270006163746976653A2025640A000A002530B6
:10028000313662003A200025303258000A722F635E
:1002900020303132333435363738394142434445E2
:1002A000460A00290A002575002F002575005D28E3
:1002B0000025640020002564002000256400200043
:1002C0002564007C0025303258006D6F7573656BB6
:1002D0006579205B62746E7C782079207620685D79
:1002E000287265702F61636C293A205B00556E6936
:1002F000636F646520696E707574206D6F6465202E
:1003000073657420746F3A2025750A00556E696311
:100310006F646520696E707574206D6F6465206907
:100320006E697420746F3A2025750A000000000081
:10033000000000002A2B2800000000000000000040
:100340000000000000000029000000002C1E3420E6
:10035000212224342627252E362D3738271E1F200C
:100360002122232425263333362E37381F04050651
:100370000708090A0B0C0D0E0F1011121314151695
:100380001718191A1B1C1D2F3130232D3504050693
:100390000708090A0B0C0D0E0F1011121314151675
:1003A0001718191A1B1C1D2F3130354C0000000086
:1003B000000000000000000000000000000000003D
:1003C000000000000000000000000000000000002D
:1003D0007E0F00D4FFFFFFC700000078313A0964A8
:1003E000656C6179282A31306D73293A2025750AA8
:1003F000323A09696E74657276616C286D73293AB8
:100400002025750A333A096D61785F7370656564FC
:100410003A2025750A343A0974696D655F746F5F17
:100420006D61783A2025750A353A09776865656CFB
:100430005F6D61785F73706565643A2025750A3673
:100440003A09776865656C5F74696D655F746F5FA5
:100450006D61783A2025750A00703A097072696EEC
:10046000742076616C7565730A643A09736574204B
:1004700064656661756C74730A75703A092B310A8C
:10048000646E3A092D310A6C743A092B31300A72C4
:10049000743A092D31300A4553432F713A09717569
:1004A00069740A0A7370656564203D2064656C7424
:1004B00061202A206D61785F7370656564202A2051
:1004C00028726570656174202F2074696D655F7492
:1004D0006F5F6D6178290A77686572652064656C65
:1004E00074613A20637572736F723D25642C2077B6
:1004F0006865656C3D25640A536565206874747091
:100500003A2F2F656E2E77696B6970656469612E6D
:100510006F72672F77696B692F4D6F7573655F6BAE
:100520006579730A004D3E20004D25753A25733ECE
:1005300020003F0A003D2025750A003F0A0064653F
:100540006661756C74730A0025750A003F0A000A1B
:10055000092D2056616C756573202D0A00710A0003
:100560000A092D204D6F7573656B6579202D0A0082
:100570003F00433E20004C25640A000A092D205309
:100580007461747573202D0A686F73745F6B65797D
:10059000626F6172645F6C65647328293A2025304C
:1005A00032580A6B6579626F6172645F70726F7442
:1005B0006F636F6C3A20253032580A6B6579626F31
:1005C0006172645F69646C653A20253032580A7440
:1005D000696D65725F72656164333228293A20253E
:1005E00030386C580A002573000A092D20436F6EBD
:1005F000736F6C65202D0A4553432F713A0971754D
:1006000069740A6D3A096D6F7573656B65790A00D7
:100610000A092D204D61676963202D0A443A094477
:1006200065627567204D65737361676520546F67F8
:10063000676C650A583A094D61747269782044659F
:10064000627567204D6F646520546F67676C652025
:100650002D2053686F77206B6579707265737365B1
:100660007320696E206D61747269782067726964A5
:100670000A4B3A094B6579626F6172642044656286
:10068000756720546F67676C65202D2053686F77FE
:10069000206B65797072657373207265706F727408
:1006A0000A4D3A094465627567204D6F7573652080
:1006B000546F67676C650A563A0956657273696FBD
:1006C0006E0A533A095374617475730A433A0941C7
:1006D0006374697661746520436F6E736F6C652017
:1006E0004D6F64650A46312D4631303A09537769BA
:1006F00074636820746F204C6179657220302D39E5
:100700002028463130203D204C30290A302D393AFE
:100710000953776974636820746F204C617965723E
:1007200020302D390A47524156453A0953776974AA
:10073000636820746F204C617965722030202861D5
:100740006C7465726E617465290A423A094A756D66
:100750007020746F20426F6F746C6F616465720AF1
:100760004553433A094A756D7020746F20426F6F8C
:10077000746C6F616465722028616C7465726E615F
:100780007465290A453A095072696E7420454550CE
:10079000524F4D2053657474696E67730A4241432A
:1007A0004B53504143453A09436C656172204545BE
:1007B00050524F4D0A006B65796D61705F636F6ECB
:1007C0006669672E7261773A20253032580A2E7397
:1007D0007761705F636F6E74726F6C5F636170736B
:1007E0006C6F636B3A2025750A2E636170736C6FB2
:1007F000636B5F746F5F636F6E74726F6C3A20250A
:10080000750A2E737761705F6C63746C5F6C6775CB
:10081000693A2025750A2E737761705F7263746C74
:100820005F726775693A2025750A2E737761705F6C
:100830006C616C745F6C6775693A2025750A2E735C
:100840007761705F72616C745F726775693A2025B9
:10085000750A2E6E6F5F6775693A2025750A2E73CB
:100860007761705F67726176655F6573633A2025B3
:10087000750A2E737761705F6261636B736C61736D
:10088000685F6261636B73706163653A2025750A06
:100890002E6E6B726F3A2025750A2E737761705F2A
:1008A0006573636170655F636170736C6F636B3AEE
:1008B0002025750A0064656275675F636F6E6669FF
:1008C000672E7261773A20253032580A2E656E61A4
:1008D000626C653A2025750A2E6D61747269783AEA
:1008E0002025750A2E6B6579626F6172643A202546
:1008F000750A2E6D6F7573653A2025750A0065655A
:10090000636F6E6669673A0A64656661756C745FE9
:100910006C617965723A2025750A003F000A6D6F97
:100920007573653A206F66660A000A6D6F757365A8
:100930003A206F6E0A000A6B6579626F6172643AE1
:10094000206F66660A000A6B6579626F6172643AAD
:10095000206F6E0A000A6D61747269783A206F66C2
:10096000660A000A6D61747269783A206F6E0A0037
:100970000A64656275673A206F66660A000A6465F4
:100980006275673A206F6E0A000A0A4A756D7069CF
:100990006E6720746F20626F6F746C6F6164657234
:1009A0002E2E2E2000433E2000436C656172696E3E
:1009B0006720454550524F4D0A000A0025303258F5
:1009C00020006B6579626F6172645F7265706F722F
:1009D000743A20005B735D005B575D005B535D0004
:1009E0005B525D005B445D005B435D0012034100B0
:1009F000740072006500750073003600320000005C
:100A00000E03500072006F00660065007400000065
:100A10000403090409025B00030100A0FA090400B1
:100A2000000103010100092111010001224000071A
:100A30000581030800010904010001030000000909
:100A40002111010001227B0007058203200001091A
:100A5000040200020300000009211101000122220A
:100A6000000705830320000107050303200001128E
:100A700001000200000008EDFE62600100010200BA
:100A8000010631FF0974A1010975150026FF0095C3
:100A900020750881020976150026FF00952075084B
:100AA0009102C005010902A10185020901A1000509
:100AB000091901290815002501950875018102050C
:100AC00001093009311581257F95027508810609D4
:100AD000381581257F950175088106050C0A3802B5
:100AE0001581257F950175088106C0C00501098023
:100AF000A101850319012AB700150126B700950148
:100B000075108100C0050C0901A101850419012A95
:100B1000A002150126A002950175108100C00501F3
:100B20000906A101050719E029E715002501950827
:100B3000750181029501750881010507190029FFDA
:100B4000150026FF00950675088100050819012982
:100B500005950575019102950175039101C0112458
:100B60001FBECFEFDAE0DEBFCDBF12E0A0E0B1E004
:100B7000EEEEF6E502C005900D92AA3BB107D9F75B
:100B800023E0AAEBB2E001C01D92A73AB207E1F759
:100B90000E9401170C942E2B0C940000FF93EF93EE
:100BA000E091BA02F091BB02309709F00995EF91FC
:100BB000FF910895FC018591803011F0EFDFFBCFAC
:100BC0000895FF27E0E230E247FF0CC0419597FF10
:100BD00009C0EDE26095709580959095611D711D3D
:100BE000811D911D27FF02C0219530E350E2AA2705
:100BF000660F771F881F991FAA1FA41710F0A41B48
:100C000063955A95A9F7AA3008F0A95FA05DAF9344
:100C1000F395611571058105910541F7ED3211F4E8
:100C2000EF93F395F21718F43F93F395FBCF8F9161
:100C3000B5DFFA95E1F70895E991F9918591803052
:100C400021F0853219F0AADFF9CF089520E0E89469
:100C500055915532C1F3503311F4689455915A337C
:100C600048F4505390F3220F022E220F220F200D32
:100C7000250FF4CF0EF4219589919991533619F3EC
:100C8000533729F1533559F1BC0188279927E89446
:100C90005C3621F48991999168945591543639F4D0
:100CA00046EF7EF077FF0DC08FEF9FEF0AC05537FC
:100CB0004AE039F0583540E121F0523642E009F07F
:100CC0000895FF93EF937DDFEF91FF91B7CFFF93EF
:100CD000EF93FC0181918030B9F360DFFBCFFF938C
:100CE000EF9368DFF1CFDF93CF93CDB7DEB72596D3
:100CF000A3DFCF91DF9108958330B8F46530A8F475
:100D00004D3098F450E09DE0699F400D511D112435
:100D1000FA0191E4899FE00DF11D1124EE0FFF1FF0
:100D2000E455FF4F85919491089580E090E00895F7
:100D30000E947C0608959C013A9521153F4150F58B
:100D4000FC01EE27F170BC0166277270AC014427EC
:100D500054709C012227387094FF0EC080E1EF2B65
:100D600009F480E0672B09F08062452B09F080646C
:100D7000232B89F08068089581E0EF2B09F480E04F
:100D8000672B09F08260452B09F08460232B19F052
:100D90008860089580E00895CF93DF93EB010E946F
:100DA0009B06FE010995DF91CF910895CF93DF93C4
:100DB000EC01805E9109089720F064E37CE02097C5
:100DC00011F46DEE79E0CE010E94CC068C2F0E94CA
:100DD000DB08DF91CF910895CF93DF93EC010E9460
:100DE0007209CE01805E9109089720F06BE37CE0E8
:100DF000209711F464EF79E0CE010E94CC06DF91D8
:100E0000CF9108950F931F93CF93DF938C01EB0144
:100E10000E94D606209741F4C8010E94EC06DF919B
:100E2000CF911F910F9108958FE99FE00197F1F7FE
:100E300000C000002197EECF70E060E0893391059B
:100E400011F460E570E00E940207089581E00895C2
:100E500081E008950E942807089508950E942D07B3
:100E60000895A5E0B0E0E7E3F7E00C949A2A4983FF
:100E70005A833091C10289819A81311119C0662348
:100E800099F0222389F00E94AD0D182F682F8981D7
:100E90009A810E94890D69817A81812F0E9426148E
:100EA0002596E3E00C94B62A0E949B0D182FF3CFF1
:100EB0000E94AD0D69817A81F1CFFC01262F40811E
:100EC00051816281738184810E943107089581E09C
:100ED0000895CF93DF93EC0160E00E945D07BE01AF
:100EE0000E942E07DF91CF9108950E943C1508952E
:100EF0000E944015089508950E94580C0E947B0797
:100F00002FEF84E39CE0215080409040E1F700C047
:100F1000000008950E947C070E940C2308950E94FF
:100F20007C070E941D2308950F931F93CF93DF9397
:100F30008C0161E00E945D07EC01B8010E942A0764
:100F4000811106C080E0DF91CF911F910F9108952C
:100F5000B801CE010E94221A8823A1F3B801CE0164
:100F60000E94C220882371F3B801CE010E94D11BD8
:100F7000882341F3B801CE010E943420882311F365
:100F8000F8018281882369F0C330FCE7DF0781F133
:100F900060F4C130ECE7DE0769F1C0F4C115DC474D
:100FA00091F0C8010E942607CECFCB35ECE7DE07D3
:100FB00039F1CC35FCE7DF0701F1CA35DC4789F7A9
:100FC0000E94C511EECF0E948A07BCCF90914A03C0
:100FD000892F8E7F90FF816080934A0380FF05C038
:100FE00084E492E00E94DA05ADCF82E392E0FACF8A
:100FF0000E94CD110E948F07A5CF0E94BB11D1CFB7
:101000000E94C911CECF0E943D220E94520808952D
:101010000E9456080E9442220895829590E09C0109
:10102000220F331F220F331F2C7C959587959595A2
:1010300087958373282B30E0C901880F991F8A7A1E
:10104000359527952575822B0895CF93DF93D92F5A
:101050000E940D08C82F8D2F0E940D089C2FDF9134
:10106000CF91089508950E943208089581E008956F
:101070000895CF93DF93D82F0E943608C82F882376
:1010800019F08D2F0E9438088C2FDF91CF91089591
:101090000895CF93C82F0E9433088C2F0E943908DF
:1010A000CF91089580E00E94490808950E94102180
:1010B0000E9449080895CF930E941021C82F809163
:1010C000BC028C1789F1C093BC020E94CD226093B0
:1010D000BD027093BE028093BF029093C0028091C4
:1010E0004A0382FF1EC080FF1CC08CE592E00E9474
:1010F000DA0580914A0380FF14C01F92CF9387E5E1
:1011000092E09F938F930E94730680914A030F9001
:101110000F900F900F9080FF04C085E592E00E9431
:10112000DA058C2F0E944908CF910895ABE0B0E01A
:10113000ECE9F8E00C949B2A4F83588769877A87FB
:101140008B8761110E94F3101E821D8285E0FE01D3
:101150003796DE01119601900D928A95E1F78C8108
:101160009D81892B61F449815A816B817C818D81BC
:101170009E810E9419102B96E2E00C94B72A898177
:101180009A8189238F3F79F3CE0101960E946707E8
:101190008111E9CFF0CFFC01808191810E94DF0DA8
:1011A0000895662329F00E9485170E945818089513
:1011B0000E94DF17FACFCF93C82F8823C9F0823857
:1011C000C9F40E94102181FD13C089E30E94A81078
:1011D0000E9414112FEF87EE93E021508040904041
:1011E000E1F700C0000089E30E94B0100E941411D2
:1011F000CF9108958338A1F40E94102180FDF8CF8B
:1012000083E50E94A8100E9414112FEF81EE94E054
:10121000215080409040E1F700C0000083E5E4CF1A
:101220008438A1F40E94102182FDE2CF87E40E945D
:10123000A8100E9414112FEF81EE94E021508040FD
:101240009040E1F700C0000087E4CECF8CEF8C0F18
:10125000813AB8F48C2F0E94E01F8111C9CF6C2F06
:1012600080910001909101010E94CE21882329F0F4
:101270008C2F0E94B0100E9414118C2F0E94A81075
:10128000B5CF80E28C0F883048F4C77081E001C090
:10129000880FCA95EAF70E94D310A8CFEBE5EC0FB0
:1012A000E33040F4F0E0EB5BFE4F808190E00E9481
:1012B00072219ECFE8E5EC0FE93150F4F0E0EE0F3B
:1012C000FF1FED5EFE4F808191810E94972190CF9C
:1012D00083E38C0F833108F08BCF61E08C2F0E9469
:1012E000D10886CF882309F456C0823879F40E9449
:1012F000102181FF50C089E30E94A8100E941411A0
:1013000089E30E94B0100E9414110895833859F4A3
:101310000E94102180FF3FC083E50E94A8100E9418
:10132000141183E5EECF843859F40E94102182FF16
:1013300032C087E40E94A8100E94141187E4E1CF14
:101340009CEF980F913AE8F290E2980F983050F4A1
:10135000877091E001C0990F8A95EAF7892F0E9462
:10136000D910D1CF9BE5980F933028F490E080E01E
:101370000E947221089598E5980F993128F490E021
:1013800080E00E949721089593E3980F933118F419
:1013900060E00E94D10808951F93CF93DF93182F28
:1013A000EB010E94DB08209739F4812F0E9472091B
:1013B000DF91CF911F9108958FE99FE00197F1F799
:1013C00000C000002197EFCF70E060E0893311F496
:1013D00060E570E00E94CC090895882321F00E9406
:1013E000D3100E9414110895882321F00E94D9106F
:1013F0000E9414110895B0E0A0E0E1E0FAE00C943E
:10140000942A6C01D62FC72FFC011281F580F2942B
:101410009FE0F9220E94C910E82E8823B9F0E12E3E
:101420001123A1F08C2F807F803421F080E28D0F7A
:101430008830D0F080917B0382FF16C082E00E944A
:1014400077110E94C91091E0E82EE926BC2EB294D3
:101450008FE0B822FBE0FB1508F468C0EB2DF0E04C
:10146000E05DF44D0C94852AE12CF0CF0C2F0F7029
:10147000C07F11F00295007F112399F0002359F0ED
:1014800080E28D0F883010F0D11107C0802F0E94AC
:10149000D3100E9414118D2F41C0802F0E94E6109E
:1014A000F8CF8D2F0E947209002309F43FC080E21B
:1014B0008D0F883010F0D11104C0802F0E94D910F8
:1014C00003C0802F0E94EC100E9414112FC00C2F1B
:1014D0000F70C07FC03211F00295007FDD2381F0D4
:1014E000D13009F468C0112309F472C0FF2009F457
:1014F00068C0F601858180FFCECF8F70858361C083
:1015000080917B0382FD33C0112359F0002329F021
:10151000802F0E94D3100E94141180E00E94DB08EB
:1015200005C080E00E9472090111C7CFEB2DE85081
:10153000FF0B349720F40E9410210E944908EE20EE
:1015400089F00E94C51080FD0DC0F60112820E9434
:10155000BF100E94E70CC6010E940A0C0E94BF1037
:101560000E94F70CCDB7DEB7E9E00C94B02A112346
:1015700089F0F11006C00E94F610802B0E94ED0940
:10158000D5CF21E0F212F7CF0E94F610802B0E94F7
:10159000FD10CCCFF11006C00E940A11802F0E94CE
:1015A000F409C4CF31E0F31609F2802F0E94F40948
:1015B0000E940A11BBCF112331F085E08F1508F48A
:1015C000B5CF802FDBCF94E09F1508F4AFCFE6CFE7
:1015D000FF2021F3D93349F4FFEF27EE33E0F15038
:1015E00020403040E1F700C000008D2F0E947209BA
:1015F0009DCF8C2F86958695837069F0813009F098
:1016000095CF8D2F9C2F9370111102C080E090E038
:101610000E9497218BCF8D2F9C2F9370111102C0A8
:1016200080E090E00E94722181CF612F8D2F0E9477
:10163000D1087CCF8C2F8370A1F5111177CF4D2F5E
:10164000429546954770440F440F2D2F2F7030E080
:10165000042E02C0220F331F0A94E2F790E080E0CC
:10166000D4FF09C08FE090E002C0880F991F4A950F
:10167000E2F780959095C695C695C370822B932B03
:10168000C23049F058F4C13019F00E94B70C4ECF67
:101690000E94AE0C4BCF0E94C00C48CF0E94AB0CF6
:1016A00045CF8695112311F08C2F8170882309F482
:1016B0003DCF4D2F429546954770440F440F2D2F37
:1016C0002F7030E0042E02C0220F331F0A94E2F77D
:1016D00090E080E0D4FF09C08FE090E002C0880F66
:1016E000991F4A95E2F780959095C695C695C37067
:1016F000822B932BC23049F058F4C13019F00E946C
:10170000220D14CF0E94190D11CF0E942B0D0ECF68
:101710000E94CF0C0BCFCF70112329F08C2F0E9489
:10172000E70C8D2F2BCF8D2F0E94F4098C2F0E9458
:10173000F70CFCCED23F51F160F4D03FB9F0D13F6D
:1017400081F0112309F449C0F110A5CE8C2F8F71BF
:1017500021C0D33F11F1D43FA1F780917B0382FDDB
:1017600026C08C2F8F71112311F314C0112349F05F
:1017700084E08F1508F4DACE8C2F8F710E94090D4A
:10178000D5CE95E09F1508F4D1CEF6CF8C2F8F7172
:101790001111CDCF0E94E70CC9CE112329F08C2F57
:1017A0008F710E94DB0CC2CE0E94D60CBFCE1123DB
:1017B00049F0CF718C2F0E94E70C63E08C2F0E94C0
:1017C0005911B4CE81E00E947711E1E0EF1508F0E5
:1017D000ADCE82E00E947711A9CEF110FBCE8C2F06
:1017E0008F71A5CF0F931F93CF93DF93EC01688187
:1017F00079818A810E94EA0D8C010E94340D0E9439
:10180000AA0CB801CE010E94FB09DF91CF911F9174
:101810000F910895CF93DF93EC018B819C81892BED
:1018200029F08881998189238F3F51F4DF91CF91ED
:101830000895CE010E94F20BCE010E946907F6CFF7
:10184000CE010E9494078111F4CF0E94C910882311
:1018500069F38A81882351F380917B0382FFE6CF6D
:1018600082E00E947711E2CF882321F00E94E610E7
:101870000E9414110895882321F00E94EC100E9408
:101880001411089590E080E00E94722190E080E0C1
:101890000E9497210E94F3100E9414110E94F618D2
:1018A0000E94581808950E94B8100E94420C089592
:1018B0000E94E3100E94530C089592959F709630F9
:1018C00091F058F4925F9F70923058F4803F19F075
:1018D00030F4883E30F481E008959A5FF4CF843F7D
:1018E000D1F380E00895883EB0F3813FD1F7F3CF84
:1018F000FC0183819481892B29F080819181892346
:101900008F3F11F480E00895808191810E94DF0D66
:101910000E945D0C0895A5E0B0E0E1E9FCE00C94C4
:101920009B2A2596E2E00C94B72AA6E0B0E0EBE90A
:10193000FCE00C949B2A2696E2E00C94B72A0895CA
:101940000E949F0C08950E94A00C9093E90280933E
:10195000E802089508950E94A30C08952091E802DA
:101960003091E902822B932B0E94A30C08952091C1
:10197000E8023091E902822393230E94A30C089588
:101980002091E8023091E902822793270E94A30C5C
:1019900008950E949F0C08950E94C90C08950E940A
:1019A000CC0C9093E7028093E602089590E080E0EB
:1019B0000E94CF0C089521E030E0A90102C0440F3D
:1019C000551F8A95E2F7CA010E94CF0C089521E0C5
:1019D00030E002C0220F331F8A95E2F78091E602C1
:1019E0009091E702822B932B0E94CF0C089521E067
:1019F00030E002C0220F331F8A95E2F72095309520
:101A00008091E6029091E702822393230E94CF0CFB
:101A1000089521E030E002C0220F331F8A95E2F7DB
:101A20008091E6029091E702822793270E94CF0CD3
:101A300008952091E6023091E702822B932B0E94B9
:101A4000CF0C08952091E6023091E7028223932380
:101A50000E94CF0C08952091E6023091E702822780
:101A600093270E94CF0C08950895262F277091E0A8
:101A700001C0990F2A95EAF723E0769567952A9594
:101A8000E1F7660F771F660F771FFA01E60FF71F62
:101A900050E040E0682F70E08191DF0111979B01D9
:101AA000042E02C0369527950A94E2F721702195FD
:101AB0002827292328272C934F5F5F4F4430510557
:101AC00059F70895A82FA77023E0969587952A9532
:101AD000E1F7880F991F880F991FFB01E80FF91F85
:101AE00050E040E080E0219130E00A2E02C03695BF
:101AF00027950A94E2F721703327042E01C0220FA4
:101B00000A94EAF7822B4F5F5F4F4430510559F733
:101B10000895262F953070F48D3060F4682F70E0B2
:101B20008DE0989F600D711D112442EC52E0822FD0
:101B30000E94350D0895292F953068F48D3058F4A2
:101B400090E062EC72E03DE0239F800D911D112436
:101B50000E94620D089580E00895B0E0A0E0E3EBFC
:101B6000FDE00C94942A7C010091E6021091E702BA
:101B70008091E8029091E902082B192BCFE0D0E088
:101B8000CC24C394D12CBC2EC6010C2E02C0880FCD
:101B9000991F0A94E2F780239123892B49F4219716
:101BA00090F7B12C8B2DCDB7DEB7E9E00C94B02ABD
:101BB000B7018C2F0E943214019789F3F3CFCF9392
:101BC000DF93EC010E94AD0DBE010E943214DF9143
:101BD000CF9108951F93CF93DF93EB019091C102B2
:101BE000992339F0CB010E94DF0DDF91CF911F9136
:101BF0000895882369F0CB010E94AD0D182F682F3E
:101C0000CE010E94890DBE01812F0E943214EDCFBA
:101C1000CB010E949B0D182FF6CF1F93CF93DF931C
:101C2000C091EA0216E08091EB028C1304C0DF91B0
:101C3000CF911F910895D0E01C9FF0011D9FF00DE2
:101C40001124E451FD4F408151816281738184816F
:101C500095810E94950C2196C770E5CF40911C0399
:101C600050911D0360911E0370911F03809120030A
:101C7000909121030E94950C08951F93CF93DF93B9
:101C800080912103807F09F049C080911E03882341
:101C900009F444C08091EA02C091EB0260911C03F8
:101CA00070911D03A0911F03B0912003D62FD7235D
:101CB00016E0C81799F190E0109711F0DF3F19F482
:101CC00001968770F6CF189F9001199F300D11244F
:101CD000F901E451FD4F41814713F2CF4081461392
:101CE000EFCF42814111ECCF438154814A1B5B0B02
:101CF000483C510528F7809121038F7080618093C3
:101D00002103F901EF50FD4F80818F708061808346
:101D10008CE193E00E940A0C0E940D0EDF91CF919E
:101D20001F910895A1E1B0E0E8E9FEE00C94932A48
:101D30008C0185E0F801DE011D9601900D928A95D7
:101D4000E1F7F801E2808CE1C82E83E0D82E6091A3
:101D50001F03709120036115710509F44EC1909124
:101D60001C0320911D03892F82238F3F09F445C155
:101D700040815181A380B480F0901E03F501E61BE1
:101D8000F70BFF2009F4EAC080912103382F307F40
:101D9000E83CF10508F0A3C031116DC0FE2C2513FD
:101DA00016C0941314C0E11012C08F70806180932C
:101DB00021030E942E0EC6010E940A0C809121036D
:101DC000F80185838F2D6196EAE00C94AF2AA11467
:101DD000B10429F0842F85238F3F09F027C180E0CB
:101DE000F82FF170DF2E80FF3CC08091EA02209135
:101DF000EB0236E0821315C04D875E878D859E8588
:101E00000E94DF0D292F22952F702230F0F0243010
:101E100018F59F70F1F0F8019581907FD1F4D12CE5
:101E20001EC090E0389FF001399FF00D1124E4515D
:101E3000FD4F6181651306C06081641303C0628138
:101E4000E6120FC001968770D5CF9F7011F08823DE
:101E500031F3805E883018F3C8010E940A0CFD2C13
:101E6000B1CFEE2009F4AECF809121038160809341
:101E70002103F12CA7CF251306C0941304C0F80149
:101E8000EE2009F487C0C8010E94780C882319F15C
:101E9000EE2009F180912103803270F020911C0323
:101EA00030911D0338872F831986BB86AA868C87BD
:101EB000CE0107960E940A0C86E0F801ACE1B3E07F
:101EC00001900D928A95E1F70E943D0E0E942E0E20
:101ED000FF24F39477CFC8010E940A0CF9CF311187
:101EE00013C07A2DB98AA88A6E2D89890E948B0C1D
:101EF0008CE193E00E940A0C86E0F60111928A952B
:101F0000E9F70E942E0EB5CF25130FC094130DC014
:101F1000E1100BC0F8018583C8010E940A0C86E01D
:101F2000F60111928A95E9F74DCFC8010E94780C0D
:101F3000882389F2EE2079F280912103803208F41F
:101F4000BBCF20911C0330911D033A8329831B8250
:101F5000BD82AC828E83CE010196ACCFE83CF10508
:101F600008F03EC0FE2CEE2009F4B5CF25132AC0A0
:101F7000941328C08091210380FD1BC0982F907F6F
:101F8000C1F0F8018583903F31F0982F907F905FEA
:101F90008F70892B8583C8010E940A0C86E0F801A6
:101FA000ACE1B3E001900D928A95E1F70E942E0E0C
:101FB00009CF86E0F801ACE1B3E001900D928A957B
:101FC000E1F700CFC8010E94780C811175CF809194
:101FD0002103816080932103C8010E940A0CF2CE84
:101FE0007A2DB98AA88A6E2D89890E948B0C86E089
:101FF000F60111928A95E9F7D9CFEE2009F46BCF5B
:10200000C8010E94780CF82E882309F464CF86E07A
:10201000F801ACE1B3E001900D928A95E1F78CE113
:1020200093E00E94CB080E943D0EC0CF81E08E2538
:10203000D7CEACE0B0E0EFE1F0E10C949A2A4F8308
:10204000588769877A878B879C87CE0107960E947D
:10205000920E882369F08A859B85892B39F04F8100
:102060005885842F85238F3F09F06BC016E05FC031
:1020700086E0FE013796DE01119601900D928A9559
:10208000E1F78A859B85892B89F388859F81892340
:102090008F3F61F32091EB0230E0C9010196877018
:1020A00099274091EA024817190671F40E94580CCA
:1020B0001092EB021092EA0286E0ECE1F3E0DF011D
:1020C0001D928A95E9F7D2CF96E0929FD001939F17
:1020D000B00D1124A451BD4FFE01319601900D9217
:1020E0009A95E1F78093EB020E940D0EBFCF819F7E
:1020F000C001112484519D4F0E94920E8823E9F063
:10210000E091EA021E9FF0011124E451FD4F40814D
:10211000518162817381848195810E94950C8091A7
:10212000EA0290E00196877099278093EA028091F5
:10213000EA029091EB028913DACF2C96E3E00C943B
:10214000B62A69857A858B859C850E94950C8ECFF1
:10215000682F80910001909101010E94042208954E
:10216000682F80910001909101010E94072208953B
:1021700080910001909101010E940A2208958091AE
:102180002A03859585958595089580912A03877002
:10219000089590912A03977081E009F480E00895F2
:1021A00080913503089590913503892B80933503F1
:1021B0000895809590913503982390933503089561
:1021C0008093350308951092350308959091340358
:1021D000892B80933403089580959091340398233C
:1021E00090933403089510923403089580912B0343
:1021F000089508950E94F910089590917B0392FF2D
:1022000008C090912B03981721F080932B030E9414
:10221000FA10089580912B03882329F010922B0344
:1022200080E00E94FA100895CF93DF93E0910001BF
:10223000F0910101809135038083E0910001F091DC
:102240000101808190913403892B808390912B032D
:10225000992381F0E0910001F09101018081892BA7
:10226000808380910001909101010E94BC21811125
:102270000E940A11C0910001D091010148E050E094
:1022800062E273E0CE010E94D62A892B59F088E0E1
:10229000FE01A2E2B3E001900D928A95E1F7CE0132
:1022A0000E942021DF91CF91089508950E94551139
:1022B000089590917B0392FF11C098E0899F90014F
:1022C0001124622B60932A030E94E70C80912A0359
:1022D0008595859585950E94561108950E94E70C75
:1022E000089510922A0380E00E945611089590915B
:1022F0002A038095892380932A03282F277091F43D
:10230000282F082E000C330B9217130659F09091CA
:102310007B0392FF07C08595859585950E94F70CF4
:102320000E9471110895CF93C82F80917B0382FB87
:10233000992790F99C17E9F0C0FB82F980937B0301
:1023400080917A0390917B030E94EE1182E00E94BB
:10235000771180914A0380FF0CC01F92CF9387E6CC
:1023600092E09F938F930E9473060F900F900F90AF
:102370000F90CF91089580917B0382FB882780F98D
:1023800091E089270E949311089581E00E949311A2
:10239000089580E00E94931108956FEF7FEF90E021
:1023A00080E00E94182B089590E080E00E94F42ABB
:1023B00021E0873E9E4F09F020E0822F089582E0C1
:1023C00090E00E94EC2A089583E090E00E94EC2ABD
:1023D000089584E090E00E94F42A0895BC0184E00E
:1023E00090E00E94182B0895AB01BC018FE090E0B3
:1023F0000E940C2B0895AB01BC0183E190E00E9488
:102400000C2B089560E070E0CB010E94FB11089551
:1024100060E070E0CB010E94F4110E940212089566
:1024200067EE7EEF90E080E00E94182B60E082E093
:1024300090E00E94FA2A60E083E090E00E94FA2A8D
:102440001092E9021092E80260E074E184E090E00A
:102450000E94182B60E086E090E00E94FA2A6FEF5D
:1024600087E090E00E94FA2A40E050E0BA0188E05C
:1024700090E00E940C2B60E08DE090E00E94FA2A30
:1024800040E050E0BA0188E190E00E940C2B60E04F
:1024900087E190E00E94FA2A40E050E0BA018CE126
:1024A00090E00E940C2B70E060E080E290E00E94DF
:1024B000182B40E050E0BA0188E190E00E940C2B1C
:1024C0000E94081208950E9410120895682F8EE04D
:1024D00090E00E94FA2A08950E94CD22609346035C
:1024E000709347038093480390934903609342039A
:1024F0007093430380934403909345030895089594
:1025000008950E948012089508950E9484120895EB
:1025100082EC94E20E9406210E947F120E948112A6
:10252000089581E008950E949112089508950895F4
:102530000E9496120E94971208950E941D150E94F3
:1025400048080E94721A08950E94B8220E944916F3
:102550000E949D120E9485120895AAE0B0E0E3EB6C
:10256000F2E10C94902A0E945F1628E3822E23E069
:10257000922E640110E0F601E190F1906F01812F3D
:102580000E9443151F5F153009F449C0E816F9068B
:1025900091F380914A0381FD0E944C150E94931291
:1025A000782E10E0812F0E9443157C01F401A19048
:1025B000B1904F018A159B0561F100E0CC24C394D2
:1025C000D12CAE24BF24C5018C219D21892BC1F0C3
:1025D0007720B1F00E831F8321E0C7018C219D215C
:1025E000892B09F420E028870E94C1228160782F7E
:1025F0009A8789874E815F8168858A850E949608BF
:102600000F5FCC0CDD1C0D30F1F6F4013297F18236
:10261000E0821F5F153031F60E946C1222C0E8166E
:10262000F90609F0B6CF0E94C1228C0180913603D1
:102630009091370308171907A1F08FEF89838A83D8
:102640001B820E94C1228160782F9D838C834981E7
:102650005A816B818D810E949608109337030093F5
:1026600036030E9418190E945B082A96EDE00C942C
:10267000AC2ACF93DF930E943714EC01811520E53B
:102680009207D0F5811530E4930708F086C0803EAC
:10269000910518F58D3C910508F07DC0883A9105AB
:1026A00070F4853A910508F06EC08130910501F112
:1026B0000097F1F00497E0F4D0E0C0E019C0813C4D
:1026C0009105D0F7C85AD0E0CC0FDD1FC85BDE4FB4
:1026D0000990D881C02DD4640BC08115904208F0B8
:1026E000A8C0C11581E0D80718F4C83ED10520F76D
:1026F000CE01DF91CF910895803622E5920710F543
:10270000803432E5930708F052C08032924508F0D9
:1027100047C0C11582E5D80708F47DC02C2F269547
:10272000269540E2249F900111248C2F8370C1E0F4
:10273000D0E002C0CC0FDD1F8A95E2F7C22BD32B6D
:10274000DD68D6CF803A22E5920760F4803832E522
:10275000930708F441C0CF71D0E0DC2FCC27C46FC1
:10276000D06AC6CF803C42E5940708F449C0C03E19
:1027700082E5D80708F0A0CFDC2FCC27CC27DF716B
:10278000C06FD06AB5CFC55AD0E0C658DE4FC881F9
:10279000D0E0D064ADCFD065ABCFDF70D06AA8CF2A
:1027A000CF71D0E0DC2FCC27C16FD06AA1CF282F0A
:1027B00026952695277080E2289F900111248C2F62
:1027C0008370C1E0D0E002C0CC0FDD1F8A95E2F734
:1027D000C22BD32BDC688CCF282F2695269527700B
:1027E00040E2249F900111248370C1E0D0E002C038
:1027F000CC0FDD1F8A95E2F7C22BD32BDA6878CF96
:102800008F710E94D914C82FD0E0DC2FCC27CC27A1
:10281000DF71D0626DCF8C2F8F710E94D91435E09B
:10282000D695C7953A95E1F7CF709C2FEC01D0690A
:102830005FCF8D2F8F710E94D91490E0982F882739
:1028400088279F719C012C2BE901E3CF462F75301F
:1028500030F46D3020F4672F0E949806089590E0C0
:1028600080E008950E9426140E943913089582384A
:102870009105B9F1B0F48133910509F47DC048F4B4
:102880008932910509F46DC08A32910509F47BC043
:1028900008958533910509F45FC08933910509F1E5
:1028A0000895833E9105D9F138F4803E910529F1D0
:1028B000823E910579F10895863E9105D9F1873ED2
:1028C000910509F43EC0843E910541F520917B03BA
:1028D00021FF24C080917A0384FD19C087EE90E027
:1028E000089520917A03237009F05AC020917B0348
:1028F00023FF14C089E290E0089520917A0320FD1F
:1029000038C030917B0330FF09C024FF43C090E002
:1029100080E0089520917A0322FDF7CF0895209159
:102920007A0322FD3AC030917B0330FD39C024FF89
:10293000F5CFEDCF20917A0323FFF0CF24FDE7CF31
:10294000CDCF20917A0323FD2EC030917B0331FF40
:10295000EECF84EE90E0089520917A0325FFDECF3C
:10296000C9CF20917A0325FD21C020917B0323FF4D
:10297000D5CF89E390E0D2CF20917A0326FFCECF46
:102980008AE290E0089520917A0326FFC7CF81E381
:1029900090E0089583EE90E0089582EE90E008952F
:1029A00080EE90E0089586EE90E0089585E390E053
:1029B000089590917A0392FF06C0282F287128303D
:1029C000F9F4877F846093FF06C0282F287128318F
:1029D000F1F4877E846120917B0320FF06C0382FAD
:1029E00038713830D9F4877F816021FF06C0282FE5
:1029F00028712831D1F4877E816194FD877E089506
:102A0000282F24712430F9F68B7F8860DCCF282FA3
:102A10002471243101F78B7E8861DDCF382F31712D
:102A2000313019F78E7F8860E0CF282F2171213156
:102A300021F78E7E8861E1CF08950E94D411811123
:102A400002C00E9463120E94DF1180934A030E9419
:102A5000E91190937B0380937A030E941C150E94D6
:102A6000E41190E00E94AB0C8091E6029091E702A5
:102A70000E94CC0C089508950E943B150895089576
:102A80000E943F150895E82FF0E0EE0FFF1FEA5770
:102A9000FC4F808191810895B0E0A0E0E2E5F5E18E
:102AA0000C94952A8CE892E00E94DA0586E8E82EDC
:102AB00083E0F82ED0E0C0E097E8C92E92E0D92E4E
:102AC0000EE712E0DF93CF93DF92CF920E9473065E
:102AD00084E892E00E94DA05F701819191917F01EB
:102AE0000E9425089F938F931F930F930E94730654
:102AF0008CE792E00E94DA0521968DB79EB7089682
:102B00000FB6F8949EBF0FBE8DBFC530D105D1F66C
:102B1000CDB7DEB7E8E00C94B12A80EA8A95F1F7E8
:102B2000089500C008950E948D150895F894E82F27
:102B3000E295EF70F0E031A1282F2F7081E090E056
:102B400001C0880F2A95EAF7982F9095932391A3B7
:102B500092A1892B82A3789408950F931F93CF930A
:102B6000DF93CDE7D1E089918F3F11F00E94961558
:102B700081E0CA38D807B9F7CAE8D1E00FE811E018
:102B800089918F3F11F00E9496150C171D07C1F710
:102B9000DF91CF911F910F9108958F929F92BF92D5
:102BA000CF92DF92EF92FF920F931F93CF93DF9319
:102BB000D82EE92EF62E8A01C62FD0E0C358DE4F5C
:102BC00028812F3F09F453C0F894E22FE295EF706B
:102BD000F0E031A12F7081E090E001C0880F2A95CC
:102BE000EAF7932F982B91A392A18095892382A332
:102BF00078940E9491158AE8882E81E0982EED2D18
:102C0000FE2DBF01665F7F4FE12C6801C094D09418
:102C1000D401BD904D0181919191AF014250510974
:102C2000BFEFBB1681F12B2D22952F7030E0D9011B
:102C300090962C9130E0BB2DBF7002C03595279542
:102C4000BA95E2F720FD1FC0802B912BDA018D93FE
:102C50009C93EE24E3946E177F07D1F688818F3F13
:102C600011F00E9496156E2D8F2D0E949315DF9105
:102C7000CF911F910F91FF90EF90DF90CF90BF9079
:102C80009F908F9008958C219D21DA018D939C93C4
:102C9000E2CF0E94AD158AE0E6E8F3E0DF01982F6D
:102CA0001D929A95E9F7ECE7F3E0DF011D928A9512
:102CB000E9F785E00E94B3160E9475070895CF9248
:102CC000DF92FF920F931F93CF93DF93CDB7DEB7C1
:102CD0002A970FB6F894DEBF0FBECDBF8E010F5FEF
:102CE0001F4F8AE0F80111928A95E9F7F12CCC2464
:102CF000C394D12CA6016F2DC8010E94CD15F39469
:102D0000CC0CDD1CFDE0FF12F5CF4AE050E0B8012D
:102D10008CE793E00E94D62A21E0009709F420E096
:102D2000892B41F08AE0F801ACE7B3E001900D9205
:102D30008A95E1F745E066E873E08CE793E00E944E
:102D4000B416182F0E947807812F2A960FB6F89490
:102D5000DEBF0FBECDBFDF91CF911F910F91FF90CE
:102D6000DF90CF9008950895CF92DF92EF92FF9277
:102D70001F93CF93DF936C017B01C42F222349F073
:102D800081E080934D030E94C12290934C03809375
:102D90004B0310914D0311110AC010E0812FDF91F8
:102DA000CF911F91FF90EF90DF90CF900895809189
:102DB0004B0390914C030E94D922059770F3D0E009
:102DC000CC0FDD1FAE01B601C7010E94D62A892BA8
:102DD00041F0AE01B601C7010E94E32A10924D03F3
:102DE000DDCF10E0FBCF0E943E250E94A4120E947E
:102DF0004B2508950E9450250E94AD120E946E2519
:102E000008950E945A220E9424250E9488120E943E
:102E1000F3160E94FA160E949812FBCF8091540379
:102E200080FF0DC06091070170E0660F771F60386A
:102E3000710570F56115710569F1862F089581FF9F
:102E400007C06091070184E0689FB0011124EFCFB3
:102E50006091070182FD0AC0809153038823A9F085
:102E60002091060160910701821710F088E0ECCFF5
:102E7000869FC001112433E0880F991F3A95E1F72E
:102E8000622F70E00E94712AD2CF68E070E0D5CF47
:102E90008FE7089581E008958091540380FF0CC06E
:102EA0006091030170E0759567957595679561155B
:102EB000710549F1862F089581FF06C060910301D5
:102EC00070E075956795F3CF6091030182FD0BC0AB
:102ED000909152039923A1F0609102018091030126
:102EE000961738F0682F70E06038710500F38FE7AF
:102EF0000895899FC001112470E00E94712AF4CFC7
:102F000061E070E0D7CF81E008958D3C31F40E94FC
:102F10000E1781958093580308958E3C19F40E94F2
:102F20000E17F8CF8F3C31F40E940E1781958093D5
:102F300057030895803D19F40E940E17F8CF893D7C
:102F400029F40E944C178093590308958A3D21F477
:102F50000E944C178195F7CF8B3D31F40E944C179E
:102F6000819580935A0308958C3D19F40E944C1763
:102F7000F8CF9FE2980F983070F4815D990B21E0B3
:102F800030E001C0220F8A95EAF780915603822B28
:102F90008093560308958D3D31F4809154038160F0
:102FA0008093540308958E3D21F4809154038260F0
:102FB000F7CF8F3DB9F7809154038460F1CF4091F2
:102FC00057038D3C59F48091580387FF0DC0109230
:102FD000580341110BC01092530308C08E3C81F47A
:102FE0008091580318169CF3442381F08091590373
:102FF00090915A03892B09F05AC0109252030895F8
:103000008F3C49F447FFF0CF10925703809158034B
:103010008111ECCFE0CF803D19F41416ACF3E4CF6E
:1030200090915903893D29F41916F4F61092590329
:10303000DBCF8A3D19F497FFD7CFF8CF90915A0391
:103040008B3D29F497FFD0CF10925A03CDCF8C3D02
:1030500019F41916CCF3C8CF9FE2980F983090F46A
:10306000815D990B21E030E0B90102C0660F771F46
:103070008A95E2F7CB01809590915603892380933E
:103080005603B2CF8D3D31F4809154038E7F8093EF
:103090005403AACF8E3D21F4809154038D7FF7CF46
:1030A0008F3D09F0A1CF809154038B7FF0CF08951D
:1030B00080914A0383FF7EC08AEC92E00E94DA0589
:1030C000809156031F928F9385EC92E09F938F938C
:1030D0000E94730683EC92E00E94DA058091570308
:1030E000282F082E000C330B3F938F9380EC92E037
:1030F0009F938F930E9473068EEB92E00E94DA05F5
:1031000080915803282F082E000C330B3F938F9388
:103110008BEB92E09F938F930E94730689EB92E072
:103120000E94DA0580915903282F082E000C330BDA
:103130003F938F9386EB92E09F938F930E94730649
:1031400084EB92E00E94DA0580915A03282F082E22
:10315000000C330B3F938F9381EB92E09F938F93FF
:103160000E9473068EEA92E00E94DA058091530372
:103170001F928F938BEA92E09F938F930E94730626
:1031800089EA92E00E94DA05809154031F928F939E
:1031900086EA92E09F938F930E94730683EA92E0FF
:1031A0000E94DA058DB79EB74C960FB6F8949EBF75
:1031B0000FBE8DBF0E94C1229C0190915703809148
:1031C0005803982B21F03093510320935003909192
:1031D000590380915A03982B21F030934F03209389
:1031E0004E0385E593E00E946421089586E0E5E5BD
:1031F000F3E0DF011D928A95E9F7109253031092D4
:103200005203109254030895FC01828181110EC073
:10321000838181110BC08481811108C091E0858177
:10322000811101C090E0892F8170089581E0FCCF69
:10323000A6E0B0E0EEE1F9E10C949A2A86E0E5E53B
:10324000F3E0DE01119601900D928A95E1F710925C
:103250005703109258031092590310925A038B810E
:103260009C81892B89F080915003909151030E9499
:10327000D922AC01909153039923C9F1809108019F
:103280008417150608F440C08D819E81892B91F02A
:1032900080914E0390914F030E94D922AC019091EE
:1032A0005203992309F471C0809104018417150613
:1032B00008F479C0BE016F5F7F4F85E593E00E94FF
:1032C0001122811105C085E593E00E940419811146
:1032D0000E94581886E0FE013196A5E5B3E0019002
:1032E0000D928A95E1F72696E3E00C94B62A209198
:1032F00009018AE0289F900111242417350720F640
:103300009F5F9093530302C09F3FD1F71B8111230E
:1033100059F00E940E179FEF11160CF491E0899F4F
:10332000802D1124809357031C81112359F00E9492
:103330000E179FEF11160CF491E0899F802D112438
:103340008093580330915703332309F49DCF209184
:103350005803222309F498CF45EB3403C00111240C
:10336000992359F09093570345EB240390011124BE
:10337000332339F03093580387CF81E0809357038C
:10338000F3CF81E0809358037FCF209105018AE03D
:10339000289F900111242417350708F08BCF9F5FD9
:1033A0009093520302C09F3FD1F71D81112359F022
:1033B0000E944C179FEF11160CF491E0899F802D0D
:1033C0001124809359031E81112359F00E944C1738
:1033D0009FEF11160CF491E0899F802D11248093AA
:1033E0005A0330915903332309F464CF20915A03CF
:1033F000222309F45FCF45EB3403C0011124992344
:1034000059F09093590345EB240390011124332381
:1034100039F030935A034ECF81E080935903F3CFB4
:1034200081E080935A0346CFFB012281222341F0A1
:1034300097FF06C09F77BC0190E080E00E94891B47
:1034400081E008950F931F93CF93DF93EC018B01DD
:10345000FB0182818823B1F00E94D0108272FE01AC
:10346000E053FC47E830F10568F4E45CF44D0C945B
:10347000852A811104C081E003C08111FCCF8FEF48
:103480000E94971AB801CE010E94141ADF91CF91C1
:103490001F910F91089580E00E949F1AF3CF81E061
:1034A000FBCF82E0F9CF83E0F7CF84E0F5CF85E072
:1034B000F3CF90919103923071F48A3050F490E000
:1034C00009966AE070E00E94712A875A0E94E40916
:1034D00008958650FBCF0E940A1D089508950E940A
:1034E0006E1A08958CE090E00E94EC2A482F50E07C
:1034F00070E060E0409391035093920360939303D4
:10350000709394030E946F1A80914A0380FF0EC04B
:10351000809191031F928F938CE093E09F938F9300
:103520000E9473060F900F900F900F9008950895CA
:10353000609191038CE090E00E94FA2A0895CF9365
:10354000C82F809391030E94981A8C2F0E946F1AA3
:1035500080914A0380FF0EC0809191031F928F9348
:103560008DEE92E09F938F930E9473060F900F90C1
:103570000F900F90CF9108950E941D21809390038A
:1035800090919103913029F481FF03C089E30E9457
:10359000E4090E94D010809395030E94E3100E94DA
:1035A000F31080919103823021F158F48823C1F007
:1035B0008130D1F08FE39CE90197F1F700C0000062
:1035C0000895843051F18530A9F78BE191E00E9494
:1035D0001C0785E290E00E941C0788E290E006C08C
:1035E00082EE0E94DB08E6CF88E193E00E941C0790
:1035F000E1CF8091900380FD03C083E50E94E40940
:1036000082EE0E94DB088FE39CE90197F1F700C08E
:10361000000087E50E94E409CDCF86EE0E94E40910
:1036200088E1F8CF80919103823011F148F488232A
:1036300081F0813091F0809195030E94E01008950F
:103640008430F9F08530B9F788E290E00E941C07D9
:10365000F2CF82EE0E947209EECF8CE20E94E40962
:103660008091900381FFE7CF89E30E94E409E3CFD3
:1036700082EE0E9472098091900380FDDCCF83E589
:10368000F4CF88E2F2CF8F929F92AF92BF92EF92E7
:10369000FF920F931F93CF93DF934B015C01D09167
:1036A00091038CE1E82EF12C07E010E021E0D50138
:1036B000C4010E2C04C0B695A795979587950A94DA
:1036C000D2F7C82FCF70222339F0D43051F4CA304A
:1036D00040F080E00E94591A8C2F0E94591A20E075
:1036E00005C0C111F9CF04301105B4F3015011091F
:1036F00084E0E81AF1080F3F1007C9F6DF91CF9177
:103700001F910F91FF90EF90BF90AF909F908F907F
:103710000895CF92DF92EF92FF926B017C01C1146A
:10372000D10481E1E806F104A0F5C114D10481E0DF
:10373000E806F10420F080919103823051F10E945B
:10374000BC1AC114D10481E0E806F10438F180917B
:103750009103811123C081E0E81AF108C701B60185
:103760002AE096958795779567952A95D1F77852AF
:103770008F4F9F4F0E94431B83E0D822EE24FF24EB
:10378000C701B60174528F4F9F4F0E94431B0E9486
:10379000121BFF90EF90DF90CF900895C701B60104
:1037A000F4CFCF93DF93EC01FB018281882309F4EE
:1037B000D2C09E0130572332310508F0B2C00E94BA
:1037C000E91190937B0380937A03FE01E150F04767
:1037D000E232F10520F4EC5BF44D0C94852A8091E3
:1037E0007A03816080937A0393C080917B03886021
:1037F00080937B038DC080917A038260F3CF8091A8
:103800007A038460EFCF80917A038860EBCF809158
:103810007B038160EDCF80917B038260E9CF809153
:103820007A038061DFCF80917A038062DBCF809161
:103830007A038064D7CF0E94580C80917A03806805
:10384000D1CF80917A038C60CDCF80917B03836050
:10385000CFCF80917A038E7FC5CF80917B03877F06
:10386000C7CF80917A038D7FBDCF80917A038B7F04
:10387000B9CF80917A03877FB5CF80917B038E7F0C
:10388000B7CF80917B038D7FB3CF80917A038F7EFA
:10389000A9CF80917A038F7DA5CF80917A038F7B0A
:1038A000A1CF0E94580C80917A038F779BCF809193
:1038B0007A03837F97CF80917B038C7F99CF809110
:1038C0007A0382FB992790F921E0922790FB82F9F5
:1038D00090FB83F987CF80917B03982F909591700F
:1038E0008E7F892B90FB81F983CF90917A03892F6A
:1038F0008F7B96FF806476CF0E94580C90917A035C
:10390000892F97FB87F980586DCF81E00E9466125E
:1039100080917A0390917B030E94EE110E94580CD3
:1039200080E0DF91CF91089580E0F0CF90917A030D
:10393000892F8F7E94FF806155CF90917A03892FD4
:103940008E7F90FF81604ECF90917B03892F877F80
:1039500093FF88604DCF81E0E4CFB0E0A0E0E3EBDF
:10396000FCE10C94962AE82FF0E0E45DFC4FD49043
:10397000282F26952695269530E0F901E453FC4F33
:103980000491877010E0082E02C0159507950A94DF
:10399000E2F701701127F901E454FC4FE490F12C97
:1039A000082E02C0F594E7940A94E2F791E0E92228
:1039B000FF24F901E455FC4FC491D0E002C0D59535
:1039C000C7958A95E2F7C170DD270115110519F039
:1039D00081EE0E94DB08E114F10419F086EE0E94EA
:1039E000DB088D2D0E94E409E114F10419F086EE44
:1039F0000E9472090115110519F081EE0E947209E9
:103A0000CD2B19F08CE20E94E409CDB7DEB7E7E0D8
:103A10000C94B22A982F9F709A50963020F0805DB7
:103A20000E94AD1C0895895AFBCF809102011F921C
:103A30008F93809103011F928F93809106011F92B3
:103A40008F93809107011F928F93809108011F929D
:103A50008F93809109011F928F938CED93E09F9338
:103A60008F930E9473068DB79EB70E960FB6F8948B
:103A70009EBF0FBE8DBF0895883228F58E3108F0A5
:103A800072C08B3041F130F4873009F4CFC08BE342
:103A900095E0E0C0833109F45FC08431C1F78DE562
:103AA00095E00E94DA0580915F03882309F4FEC047
:103AB00010925F0310925E0310925D0310925C03FC
:103AC00010925B0320C08F3409F4C7C0D8F5893247
:103AD00031F38833E1F680E695E00E94DA050E9432
:103AE000151D1F9281E08F931F9288E08F9389E5C7
:103AF00094E09F938F930E9473060F900F900F9006
:103B00000F900F900F9020915F03222309F4C9C0FA
:103B100080915B0390915C03009711F48FE891E032
:103B20009F938F931F922F9389E295E09F938F939A
:103B30000E9473060F900F900F900F900F900F90B0
:103B400081E00895813509F49CC008F49CC0823559
:103B500009F09DCF81E082C08FE495E00E94DA05F4
:103B60000E94151DD0CF8D5180935F03833009F4DF
:103B700042C058F48130C1F08230A1F110925F034D
:103B80008CE495E00E94DA051BC0853009F445C03D
:103B9000D8F1863099F782E091E090935E038093AC
:103BA0005D0387ED91E008C089E091E090935E03AA
:103BB00080935D0383E991E090935C0380935B03C2
:103BC00080915F03882309F49ECF1F928F9388E42E
:103BD00095E09F938F930E9473060F900F900F9024
:103BE0000F9091CF88E091E090935E0380935D0306
:103BF0008CE991E0E1CF87E091E090935E038093C0
:103C00005D0388EA91E0D8CF86E091E090935E036F
:103C100080935D0385EB91E0CFCF83E091E09093BB
:103C20005E0380935D0384EC91E0C6CF81E08093D6
:103C3000090184E1809308018AE0809307018EE105
:103C40008093060188E08093030188E2809302015B
:103C50008EE395E00E94DA0556CF8AE0E0915D039D
:103C6000F0915E033097D1F02081082E000C990B63
:103C7000820F911D8F3F910541F03CF08FEF8083C3
:103C800007C08FEFEBCF86EFE9CF97FFF8CF108219
:103C900080811F928F9385E395E09BCF82E395E02F
:103CA000D9CF85E295E00E94DA054ACF80E00895F9
:103CB000CF93C82F1F928F9386E795E09F938F93A2
:103CC0000E94730681E090E002C0880F991FCA9598
:103CD000E2F70E94AB0C0E94580C0F900F900F90CF
:103CE0000F90CF910895EF92FF920F931F93CF9370
:103CF000DF938B3109F410C108F0B0C08B3009F4A8
:103D0000CCC008F082C0863009F4DAC048F48530AF
:103D100009F4B2C08BE199E00E94DA0580E0E0C0CE
:103D2000873009F4E2C08830A9F70E94E4111F929D
:103D30008F938EEF98E09F938F930E9473060E945B
:103D4000DF1183FB992790F91F929F9382FB99279C
:103D500090F91F929F9381FB992790F91F929F934F
:103D6000982F91701F929F931F928F9385EB98E0ED
:103D70009F938F930E9473060E94E91193FB222761
:103D800020F91F922F9387FB222720F91F922F9350
:103D900086FB222720F91F922F9385FB222720F9EB
:103DA0001F922F9384FB222720F91F922F9383FBCE
:103DB000222720F91F922F9382FB222720F91F929E
:103DC0002F9391FB222720F91F922F93292F2170E7
:103DD0001F922F9381FB222720F91F922F93282FC8
:103DE00021701F922F939F938F9386EB97E09F9361
:103DF0008F930E9473068DB79EB78A960FB6F8947C
:103E00009EBF0FBE8DBF81E06BC0803109F49CC0A6
:103E100080F48E3009F07ECF90914A03892F8B7FFA
:103E200092FF846080934A0382FF8BC086E499E00E
:103E30007FC0863109F498C0893109F06BCF8CEED0
:103E400091E09F938F9386EE95E09F938F930E94CE
:103E500073060F900F900F900F90D5CF8A3249F1D3
:103E600090F4873211F128F48E3108F453CF8D513C
:103E70001DC0893209F04ECF89E899E00E94DA0529
:103E80000E948A07C0CF833468F48A3308F091C057
:103E9000853359F0883309F03DCF80E196E00E94E8
:103EA000DA05B1CF833409F035CF80E00E94581E87
:103EB000AACF89EA99E00E94DA050E946312A3CF93
:103EC00080914A03807F80934A0389EE95E00E94A7
:103ED000DA0585EA99E00E94DA0581E080936003C3
:103EE000CDB7DEB7E6E00C94B32A90914A03892F50
:103EF0008E7F90FF816080934A0380FF03C08DE72F
:103F000099E0CDCF80E799E00E94DA0580914A03DD
:103F1000817F80934A0377CF90914A03892F8D7FC9
:103F200091FF826080934A0381FF08C083E699E095
:103F30000E94DA0580914A038160EBCF85E599E024
:103F4000AECF86E399E0ABCF90914A03892F877F6C
:103F500093FF886080934A0383FF03C08AE299E05D
:103F6000E7CF8DE199E09BCF0E94CD22162F072F3E
:103F7000F82EE92ED0917903C09112010E941021F0
:103F8000EF92FF920F931F931F92DF931F92CF9395
:103F90001F928F938BE795E09F938F930E947306F8
:103FA0008DB79EB70C960FB6F8949EBF0FBE8DBF0F
:103FB0002ACF89537BCF80E008950E94DB1F0895AC
:103FC000CF93C82F809160038130C1F0882339F0EE
:103FD000823009F444C01092600380E00DC00E945A
:103FE000D0108232D1F78C2F0E94DB1F81111BC0B1
:103FF0008C2F0E94731E8170CF9108950E94D01063
:10400000823289F38C2F0E94DD1F81111BC0C431C5
:10401000D9F060F4CB3071F0C031D1F080E795E099
:104020000E94DA0513C081E090E0E5CFC93261F06B
:10403000C833A1F789EE95E00E94DA0582E795E0A2
:104040000E94DA0581E0D7CF1092600380E0D3CFE1
:1040500082E08093600388E30E943C1DF3CF8C2FA5
:104060000E943C1D81E0C8CFCF93DF93EB018631E6
:104070009C4711F50E94D0109A81992399F08A7A71
:1040800091E009F490E090936103811109C089E205
:104090000E94A8100E94141180E0DF91CF91089532
:1040A00085E3F6CF80916103811104C089E20E940B
:1040B000B010F0CF85E3FBCF81E0EFCF0F931F93DC
:1040C000CF93DF93C42FD22FFC0182818823C9F0C4
:1040D000409364030E94C122909363038093620320
:1040E00080E28C0F883040F4C77081E001C0880FF7
:1040F000CA95EAF70E94ED09DF91CF911F910F91C8
:10410000089510916403141332C08091620390915A
:1041100063030E94D922883C910548F5C0E2CD0F87
:104120001D17B9F080E2810F883040F4177081E0EC
:1041300001C0880F1A95EAF70E94F409C83048F4C4
:1041400081E09D2F977001C0880F9A95EAF70E9431
:10415000ED09802F0E94E409C83070F6D77081E025
:1041600001C0880FDA95EAF70E94F409C5CF80E212
:104170008C0F883008F6C77081E001C0880FCA959F
:10418000EAF7F2CF0F93DB0188519C478730910506
:10419000A0F5FC01EA59F44D0C94852A06E221EEC3
:1041A00041EE6AE17CE7CD010E945E2080E00F9144
:1041B000089507E225EE45EE6BE17CE7F4CF06E2D9
:1041C00021EE40EE68E17CE7EECF07E225EE44EE1B
:1041D00069E17CE7E8CF06E221EE42EE6CE17CE7A4
:1041E000E2CF07E225EE46EE6DE17CE7DCCF08E2A8
:1041F00021E045EE6EE17CE7D6CF12968C918823C4
:1042000019F010926403D3CF81E0D1CF9093BB0219
:104210008093BA02089590936A0380936903089586
:10422000E0916903F0916A03309729F00190F081E1
:10423000E02D0995089580E008950E9410210895C9
:10424000EF92FF920F931F93CF93DF938C01E09136
:104250006903F0916A03309791F10280F381E02DB8
:10426000099580914A0382FF2AC080FF04C082EC36
:1042700099E00E94DA05D0E0C0E08CEBE82E89E0FE
:10428000F82E80914A0380FF0EC0F801EC0FFD1F4D
:1042900080811F928F93FF92EF920E9473060F907E
:1042A0000F900F900F902196C830D10551F7809153
:1042B0004A0380FF04C08AEB99E00E94DA05CDB77B
:1042C000DEB7E6E00C94B32AE0916903F0916A034B
:1042D000309739F022E0DC012C930480F581E02D49
:1042E00009950895A3E0B0E0E8E7F1E20C949B2A79
:1042F000209167033091680328173907A1F0909344
:10430000680380936703E0916903F0916A03309733
:1043100051F023E029839B838A830680F781E02D77
:10432000CE01019609952396E2E00C94B72AA3E00A
:10433000B0E0EDE9F1E20C949B2A20916503309105
:10434000660328173907A1F09093660380936503ED
:10435000E0916903F0916A03309751F024E02983DA
:104360009B838A830680F781E02DCE010196099513
:104370002396E2E00C94B72A9C012E5F3F4FAC01DC
:10438000485F5F4F80E02417350709F40895F9016D
:1043900091919F019923B9F38F5FF5CF662349F07F
:1043A000FC01329608962191261729F0E817F907A3
:1043B000D1F780E0089581E008959C01FC013296D8
:1043C0009FEF80E04191461751F09F3F19F4411152
:1043D00001C0982F8F5F8630A9F79F3F09F4089599
:1043E000290F311D97FD3A95F90162830895FC016B
:1043F000329608962191261303C0DF0111971C9273
:10440000E817F907B9F708950E94DD2108950E9481
:10441000F7210895029626E0FC0111922A95E9F70A
:10442000089546E050E00E94D62A21E0892B09F445
:1044300020E0822F089508950E941B220895811183
:1044400006C081E080936B030E941C22089582E0E5
:10445000F9CF83E080936B030E941C2208950E9491
:104460001F22089581E080936B030E941C2208950F
:104470000E9432220895089508950E943C220895D2
:10448000089508950E943B220895CF930E944022F0
:104490000E945F160E944122C0E08C2F0E944315AB
:1044A000892B31F4CF5FC530C1F780E0CF910895FB
:1044B00081E0FCCF85B7806885BF85B7806885BF00
:1044C00008951F921FB61F9211248F939F93AF934D
:1044D000BF9380916C03811113C0809196039091DA
:1044E0009703A0919803B09199034196A11DB11D26
:1044F0008093960390939703A0939803B0939903A6
:10450000BF91AF919F918F911F901FBE1F901895E3
:1045100080919E03843031F10E94030810926C0355
:1045200088E190E020E40FB6F894A89580936000AD
:104530000FBE2093600083B7817F846083BF83B701
:10454000816083BF7894889583B78E7F83BF0FB6D1
:10455000F894A89580916000886180936000109223
:1045600060000FBE08950E94580C0E94080808952C
:1045700082E084BD93E095BD9AEF97BD80936E0075
:1045800008952FB7F8948091960390919703A09186
:104590009803B09199032FBF08952FB7F8946091B5
:1045A00096037091970380919803909199032FBF80
:1045B00008959C014FB7F8948091960390919703CA
:1045C000A0919803B09199034FBF821B930B08955C
:1045D00078941F921FB61F9211248F939F93AF93CD
:1045E000BF938091960390919703A0919803B09107
:1045F00099030196A11DB11D809396039093970393
:10460000A0939803B0939903BF91AF919F918F911D
:104610001F901FBE1F90189587E797E7909301089A
:104620008093000888E19AE00FB6F894A8958093EB
:1046300060000FBE90936000FFCF88E19AE00FB654
:10464000F894A895809360000FBE90936000FFCF10
:104650008091780308959B01BA0190919E03943054
:10466000E9F48F708093E9009FEF8091E80091500A
:1046700085FD06C085ED8A95F1F700009111F5CF13
:104680008091E80085FF0AC050E040E0C9010E9427
:10469000DF258091E8008E778093E800089543E05D
:1046A00050E0BC0182E00E942B23089546E050E0D8
:1046B000BC0182E00E942B230895CF93DF93EC018D
:1046C00048E050E0BC0181E00E942B2388E0FE011D
:1046D000A0E7B3E001900D928A95E1F7DF91CF91C9
:1046E000089588EE99E00E94DA0580919D0381117A
:1046F00009C00E946F270E94CC278091E20084604D
:104700008093E200089584EE99E00E94DA05109209
:104710009D03089580EE99E00E94DA050E943222FE
:1047200008958CED99E00E94DA0560919A0381E08A
:10473000611101C080E00E942922089588ED99E06E
:104740000E94DA0590919E0381E0943009F080E0A8
:1047500060919A030E942F22089520916E032F5F8B
:10476000822F62E30E94652A992319F020936E0339
:10477000089510926E0380916F038823F1F0809169
:104780009E038430C1F49091E9009F702091EC0069
:10479000822F817020FD80E8892B93E09093E900BF
:1047A0009091EB0090FF04C09091EE0097FD08C03F
:1047B0008F708093E90010926F0308951092F100BA
:1047C0009091E80095FDFACF9091E80090FFF0CF2E
:1047D0009091E8009E779093E800EACF42E061EC88
:1047E00081E00E94EB2642E261EC82E00E94EB262F
:1047F00042E261EC83E00E94EB2690919E0381E00F
:10480000943009F080E060919A030E941F2208957D
:104810008091A003833009F461C030F48130D1F17C
:10482000823009F49EC008958A3009F48AC08B3022
:1048300009F46FC0893009F050C080919F03813224
:1048400009F04BC08091A3039091A403029708F054
:1048500044C08091E800877F8093E8008091E80061
:1048600082FF37C09091F3008091F200029731F4FB
:104870008091F100813011F0863021F48091F100B7
:10488000809378038091E8008B778093E8000E9402
:104890001F2723C080919F03813AF9F48091E8009B
:1048A000877F8093E8008091A3039091A403892BD4
:1048B00061F468E080E793E070E00E942E2680912A
:1048C000E8008B778093E800089560E090E080E056
:1048D000F3CF80919E038111C1CF089580919F03F2
:1048E000813AD9F78091A3039091A403892BA9F76A
:1048F0008091E800877F8093E8008091E80080FF46
:10490000FCCF809112018093F1008091E8008E77B6
:10491000BCCF80919F03813201F78091A3039091D6
:10492000A403892BD1F68091E800877F8093E8006B
:104930000E941F278091A103809312010E94580CAE
:10494000089580919F03813241F68091E800877F2E
:104950008093E8000E941F278091A203809379032F
:10496000089580919F03813A09F0B7CF8091E800C4
:10497000877F8093E8008091E80080FFFCCF8091E2
:104980007903C1CF9FB7F89410926F039FBF9091A6
:104990009E03943009F048C02091E9002F703091B7
:1049A000EC00932F917030FD90E8922B23E0209340
:1049B000E9002091EB0020FF34C02091EE0027FF9A
:1049C00030C020916D03222321F02091E80025FFC3
:1049D00028C010926D0326E03091E80035FF14C026
:1049E0008093F1008091E80085FD27C08091E80068
:1049F00080FFFCCF8091E8008E778093E8009F7065
:104A00009093E90080E0089530919E03343049F49A
:104A10003091EB0035FD05C0215041F481E08093D9
:104A20006D039F709093E9008FEF0895EFE9FFE029
:104A30003197F1F700C00000CFCF8FB7F89421E095
:104A400020936F038FBFDBCF84B7877F84BF0FB600
:104A5000F894A8958091600088618093600010921E
:104A600060000FBE80E890E00FB6F894809361007C
:104A7000909361000FBE0E94382208950E946F2714
:104A80000E94CC27E2EEF0E08081846080837894FD
:104A90000E944A2A08958AE091E00E940B2108951D
:104AA00080919E03853051F484ED99E00E94DA05EF
:104AB00080919E03853019F00E94B32208950E94D0
:104AC000882280919C03882399F30E9445228823A1
:104AD00079F30E94C9250E94580CEACF08950E94DC
:104AE00072250895292F33272330310521F168F4E9
:104AF0002130310509F443C02230310509F444C0A6
:104B000090E080E030E020E026C02132310551F114
:104B100022323105A9F76330710590F7FB01EE0FE2
:104B2000FF1FE355FD4F2081318166557D4FFB010D
:104B3000808190E010C099278130910581F0009725
:104B400029F00297E9F6ECEEF9E002C0E0E1FAE0C4
:104B5000849190E09F01FA01318320830895E0E081
:104B6000FAE0F6CF6330710558F6660F771FFB0148
:104B7000ED54FD4F2081318189E090E0ECCF82E15E
:104B800090E02FE63AE0E7CF8BE590E024E13AE0D1
:104B9000E2CF80E189BD82E189BD09B400FEFDCF8D
:104BA0008091D8008F7D8093D8008091E000826052
:104BB0008093E0008091E00081FDFCCF0895AF92EA
:104BC000BF92CF92DF92FF920F931F93CF93DF9309
:104BD0006C01EB018A010E943E27F82E811123C04F
:104BE0000115110539F0F80180819181C81BD90B9D
:104BF000C80ED91EB12CA12C2097A9F08091E800F5
:104C000085FD22C08091E8008E778093E800011531
:104C10001105A1F0F80180819181A80EB91EB18221
:104C2000A08285E0F82E8F2DDF91CF911F910F91FB
:104C3000FF90DF90CF90BF90AF9008950E943E27E5
:104C40008823D1F2F82EEFCFF60181916F01809386
:104C5000F1002197FFEFAF1ABF0ACECFFC01809180
:104C6000A5039091A60386179707A0F0611571051B
:104C700029F49091E8009E779093E80090E0611508
:104C8000710551F4911108C08091E80082FF34C091
:104C900080E00895BC01F2CF80919E038823C1F18A
:104CA0008530C1F18091E80083FD30C08091E8003B
:104CB00082FDEACF8091E80080FFE1CF8091F30090
:104CC0002091F200382F6115710519F02830310557
:104CD00058F091E02830310509F090E02091E8008B
:104CE0002E772093E800CBCF81918093F100615023
:104CF00071092F5F3F4FE7CF80919E03882341F0DA
:104D0000853041F08091E80083FFBECF81E00895B7
:104D100082E0089583E00895FC018091A5039091BD
:104D2000A60386179707A0F06115710529F48091F5
:104D3000E8008E778093E80090E06115710551F4EA
:104D4000911108C08091E80082FF35C080E008958D
:104D5000BC01F2CF80919E038823C9F18530C9F14F
:104D60008091E80083FD31C08091E80082FDEACFA8
:104D70008091E80080FFE1CF8091F3002091F20064
:104D8000382F6115710519F02830310558F091E080
:104D90002830310509F090E08091E8008E7780930B
:104DA000E800CBCF84918093F10031966150710976
:104DB0002F5F3F4FE6CF80919E03882341F08530DF
:104DC00041F08091E80083FFBDCF81E0089582E04B
:104DD000089583E00895982F973028F08F7080937E
:104DE000E90081E008959093E900242F762F50E0A8
:104DF000981731F07091EC002091ED005091F00087
:104E000021FD02C09F5FE8CF3091EB003E7F3093E1
:104E1000EB003091ED003D7F3093ED003091EB00E1
:104E200031603093EB007093EC002093ED005093D1
:104E3000F0002091EE0027FDE5CF80E008958091FD
:104E40009F0387FF13C08091E80082FF06C0809116
:104E5000E8008B778093E80004C080919E03811165
:104E6000F2CF089580919E038823D9F38091E800C2
:104E700080FFF8CF8091E8008E77ECCF2091E4009E
:104E80003091E50095E6A9012091EC00822F817018
:104E900020FF06C08091E80080FF06C080E00895F2
:104EA0002091E80022FD1AC080919E03882389F09A
:104EB000853089F08091EB0085FD0FC02091E400E2
:104EC0003091E50042175307F9F29150E1F684E082
:104ED000089582E0089583E0089581E008950E9496
:104EE000DE270E94E627E0EEF0E08081816080838B
:104EF000E8EDF0E080818F77808319BCA7EDB0E00A
:104F00008C918E7F8C9380818F7E808310929D0305
:104F100008950F931F93CF93DF930E94DE270E9483
:104F2000E627C8EDD0E088818F7788838881806804
:104F3000888388818F7D888319BC10929E0310928C
:104F40009A0310929C0310929B0300EE10E0F8016C
:104F500080818B7F808388818160888342E060E0EC
:104F600080E00E94EB26E1EEF0E080818E7F80837E
:104F7000E2EEF0E0808181608083808188608083C0
:104F8000F80180818E7F8083888180618883DF91B2
:104F9000CF911F910F910895E8EDF0E080818F7E11
:104FA0008083E7EDF0E080818160808384E082BFD0
:104FB00081E080939D030E9489270895E8EDF0E049
:104FC00080818E7F80831092E20008951092DA0033
:104FD0001092E10008951F920F920FB60F921124C4
:104FE0002F933F934F935F936F937F938F939F93F1
:104FF000AF93BF93EF93FF938091E10082FF0BC0CB
:105000008091E20082FF07C08091E1008B7F809356
:10501000E1000E94AD238091DA0080FF19C08091E9
:10502000D80080FF15C08091DA008E7F8093DA006F
:105030008091D90080FF96C080E189BD82E189BD61
:1050400009B400FEFDCF81E080939E030E9471238E
:105050008091E10080FF19C08091E20080FF15C0BF
:105060008091E2008E7F8093E2008091E200806177
:105070008093E2008091D80080628093D80019BCB0
:1050800085E080939E030E9491238091E10084FF3C
:105090002BC08091E20084FF27C080E189BD82E1BE
:1050A00089BD89B5982F917080FFFBCF8091D80082
:1050B0008F7D8093D8008091E1008F7E8093E10006
:1050C0008091E2008F7E8093E2008091E200816017
:1050D0008093E20080919A03882309F449C084E018
:1050E00080939E030E949E238091E10083FF29C04C
:1050F0008091E20083FF25C08091E100877F80934B
:10510000E10082E080939E0310929A038091E10077
:105110008E7F8093E1008091E2008E7F8093E20099
:105120008091E20080618093E20042E060E080E0F4
:105130000E94EB268091F00088608093F0000E942E
:105140008A23FF91EF91BF91AF919F918F917F91B2
:105150006F915F914F913F912F910F900FBE0F90E4
:105160001F90189519BC10929E030E94832370CF44
:105170008091E30087FD93E090939E03B3CF1F924D
:105180000F920FB60F9211242F933F934F935F937B
:105190006F937F938F939F93AF93BF93CF93DF933F
:1051A000EF93FF93D091E900DF708091EC00C82F5E
:1051B000C17080FDC0E81092E9008091F000877F07
:1051C0008093F00078940E9403291092E900809166
:1051D000F00088608093F000CD2BCF70C093E90081
:1051E000FF91EF91DF91CF91BF91AF919F918F91FF
:1051F0007F916F915F914F913F912F910F900FBED3
:105200000F901F901895AAE2B0E0E9E0F9E20C9443
:105210009A2A8FE993E02091F100FC012193CF01BC
:10522000F3E0873A9F07B9F70E9408248091E800CD
:1052300083FF1EC180919F039091A0039A3008F0D4
:1052400017C1E92FF0E0E359F44D0C94852A80381A
:1052500099F0823809F00CC18091A3038F708730D8
:1052600008F006C18093E9008091EB0085FB882758
:1052700080F91092E90006C080919B0390919C03F5
:10528000911182609091E800977F9093E80080935D
:10529000F1001092F1008091E8008E77E5C088233C
:1052A00009F4D3C0823009F0E3C08091A1038111D9
:1052B000D6C08091A3038F702FEF280F263008F0FF
:1052C000D7C08093E9002091EB0020FFC8C0933045
:1052D00031F48091EB0080628093EB00C0C090912C
:1052E000EB0090619093EB0021E030E001C0220FD1
:1052F0008A95EAF72093EA001092EA008091EB0089
:105300008860EACF8111B4C01091A1031F7780910A
:10531000E3008078812B8093E3008091E800877F11
:105320008093E8000E941F278091E80080FFFCCF57
:105330008091E30080688093E30082E0111183E0B4
:1053400080939E0395C08058823008F091C0809170
:10535000A1039091A2038C3D23E09207A1F583E085
:105360008A838AE289834FB7F894DE01139620E09E
:105370003EE051E2E32FF0E050935700E49120FF2C
:1053800003C0E295EF703F5FEF708E2F90E0EA3040
:10539000C0F0C7968D939D932F5F243159F74FBF6F
:1053A0008091E800877F8093E8006AE270E0CE0198
:1053B00001960E942E268091E8008B778093E8006A
:1053C00057C0C096E7CF6091A3037091A403AE01CC
:1053D0004F5F5F4F0E946F25BC01892B09F448C0C5
:1053E0009091E800977F9093E80089819A810E94CC
:1053F0008C26E1CF8038E1F58091E800877F8093AB
:10540000E80080919A038093F10045CF811130C06C
:105410009091A103923060F58091E800877F80939E
:10542000E80090939A030E941F2780919A03882393
:1054300011F084E005C08091E30087FDFACF81E0A0
:1054400080939E030E94EE2313C08091A1038130BC
:1054500079F481E0933009F080E080939C0310920E
:10546000E9008091E800877F8093E8000E941F2771
:105470008091E80083FF0AC08091E800877F8093D5
:10548000E8008091EB0080628093EB00AA96E3E055
:105490000C94B62ACF9380919E038823A1F0C091EB
:1054A000E900CF709091EC00892F817090FD80E829
:1054B000C82B1092E9008091E80083FD0E94032927
:1054C000CF70C093E900CF910895991B79E004C093
:1054D000991F961708F0961B881F7A95C9F7809533
:1054E000089597FB072E16F4009407D077FD09D096
:1054F0000E94C22A07FC05D03EF4909581959F4FEB
:105500000895709561957F4F0895EE0FFF1F0590E8
:10551000F491E02D09942F923F924F925F926F92F7
:105520007F928F929F92AF92BF92CF92DF92EF9233
:10553000FF920F931F93CF93DF93CDB7DEB7CA1BB4
:10554000DB0B0FB6F894DEBF0FBECDBF09942A88DF
:10555000398848885F846E847D848C849B84AA8487
:10556000B984C884DF80EE80FD800C811B81AA8114
:10557000B981CE0FD11D0FB6F894DEBF0FBECDBFDF
:10558000ED010895AA1BBB1B51E107C0AA1FBB1F59
:10559000A617B70710F0A61BB70B881F991F5A95BF
:1055A000A9F780959095BC01CD010895FB01DC0120
:1055B00004C08D910190801921F441505040C8F7EA
:1055C000881B990B0895FB01DC0102C001900D922C
:1055D00041505040D8F70895F999FECF92BD81BD52
:1055E000F89A992780B50895A8E1B0E042E050E02C
:1055F0000C94202B262FF999FECF92BD81BDF89AED
:10560000019700B4021639F01FBA20BD0FB6F89406
:10561000FA9AF99A0FBE08950396272F0E94FB2A43
:105620000E94FA2A252F0E94FB2A242F0C94FB2A81
:105630000196272F0E94FB2A0C94FA2ADC01CB0149
:10564000FC01F999FECF06C0F2BDE1BDF89A319692
:1056500000B40D9241505040B8F70895F894FFCF30
:10566000360A360A670A670AF90A150B960A960A75
:105670001A0B8B0B9A0B9A0B391A3D1A4B1A4F1AAD
:10568000511A531A551A571A291C9D1C311CFB1B01
:10569000FF1B351C031C391C451C0F1C961C131CBE
:1056A000491C171C4D1C751C1B1C511C7C1C211CEF
:1056B000571C5F1C071C3D1C0B1C411C251C5B1C44
:1056C0006B1C851C941CF51B2D1CA41CDF20E520E5
:1056D000CE20D920EB20F120F72027294F29382A86
:0E56E0004F29382A8229A329382AFA29062AB6
:1056EE002C03280850011E0A140128235D2356237B
:1056FE004F2301E200E900EA00B500B600B700CD85
:10570E00008301CC008A019201940121022302241C
:10571E00022502260227022A02B300B4006F00708F
:10572E00009F01CB01818283E200E900EA00B5000F
:10573E00B600B700CD008301CC008A01920194011E
:10574E002102230224022502260227022A02B30086
:10575E00B4006F0070009F01CB01818283F4F5F6D7
:10576E00F7313332363534C6976692939190943F23
:10577E003F3F006D6B5F64656C6179006D6B5F69B7
:10578E006E74657276616C006D6B5F6D61785F73C0
:10579E0070656564006D6B5F74696D655F746F5FD6
:1057AE006D6178006D6B5F776865656C5F6D6178B4
:1057BE005F7370656564006D6B5F776865656C5FC0
:1057CE0074696D655F746F5F6D6178000A092D20D5
:1057DE0056657273696F6E202D0A5649443A203011
:1057EE007846454544282250726F666574222920FA
:1057FE005049443A2030783630363228224174727D
:10580E0065757336322229205645523A203078304B
:10581E003030310A4255494C443A202028446563C1
:10582E002020382032303232290A4F5054494F4E00
:10583E00533A204C554641204D4F5553454B4559F3
:10584E002045585452414B455920434F4E534F4CCF
:10585E004520434F4D4D414E4420343039360A4792
:10586E0043433A20382E332E30204156522D4C4988
:10587E0042433A20322E302E30204156525F415252
:10588E0043483A20617672350A00407B221E0BA3F4
:0A589E000A810A260A3F0A580A0090
:00000001FF
